{"contracts/Voting.sol":{"SimpleVoting":{"abi":[{"anonymous":false,"inputs":[{"indexed":true,"internalType":"address","name":"voter","type":"address"},{"indexed":false,"internalType":"enum SimpleVoting.Choices","name":"choice","type":"uint8"}],"name":"Voted","type":"event"},{"inputs":[],"name":"auditingVotes","outputs":[{"internalType":"uint256","name":"","type":"uint256"}],"stateMutability":"view","type":"function"},{"inputs":[],"name":"vote_X402","outputs":[],"stateMutability":"nonpayable","type":"function"},{"inputs":[],"name":"vote_auditing","outputs":[],"stateMutability":"nonpayable","type":"function"},{"inputs":[{"internalType":"address","name":"","type":"address"}],"name":"voterLog","outputs":[{"internalType":"bool","name":"hasVoted","type":"bool"},{"internalType":"enum SimpleVoting.Choices","name":"votedFor","type":"uint8"}],"stateMutability":"view","type":"function"},{"inputs":[],"name":"winner","outputs":[{"internalType":"string","name":"","type":"string"}],"stateMutability":"view","type":"function"},{"inputs":[],"name":"x402Votes","outputs":[{"internalType":"uint256","name":"","type":"uint256"}],"stateMutability":"view","type":"function"}],"evm":{"bytecode":{"linkReferences":{},"object":"608060405234801561001057600080fd5b5061046d806100206000396000f3fe608060405234801561001057600080fd5b50600436106100725760003560e01c8063b58b5a1011610050578063b58b5a10146100db578063bdea6e62146100e3578063dfbf53ae146100ec57600080fd5b80632a5c5971146100775780634fff6e05146100ba57806382fc1df3146100d1575b600080fd5b6100a361008536600461033f565b60006020819052908152604090205460ff8082169161010090041682565b6040516100b192919061039e565b60405180910390f35b6100c360015481565b6040519081526020016100b1565b6100d9610101565b005b6100d96101c7565b6100c360025481565b6100f461027e565b6040516100b191906103b4565b3360009081526020819052604090205460ff16156101565760405162461bcd60e51b815260206004820152600d60248201526c105b1c9958591e481d9bdd1959609a1b60448201526064015b60405180910390fd5b336000908152602081905260408120805461ffff19166001908117909155805490918291610185908390610402565b909155505060405133907f14075e33dffdc00c1fcaf75d0f86d667170be57fb566b12b41b499e5fa53b125906101bd90600090610429565b60405180910390a2565b3360009081526020819052604090205460ff16156102175760405162461bcd60e51b815260206004820152600d60248201526c105b1c9958591e481d9bdd1959609a1b604482015260640161014d565b336000908152602081905260408120805461ffff19166101011790556002805460019290610246908490610402565b909155505060405133907f14075e33dffdc00c1fcaf75d0f86d667170be57fb566b12b41b499e5fa53b125906101bd90600190610429565b6060600254600154036102c3575060408051808201909152600881527f4452415721212121000000000000000000000000000000000000000000000000602082015290565b6002546001541115610307575060408051808201909152601781527f78343032206973207468652057494e4e45522021212121000000000000000000602082015290565b5060408051808201909152601b81527f4175646974696e67206973207468652057494e4e455220212121210000000000602082015290565b60006020828403121561035157600080fd5b813573ffffffffffffffffffffffffffffffffffffffff8116811461037557600080fd5b9392505050565b6002811061039a57634e487b7160e01b600052602160045260246000fd5b9052565b821515815260408101610375602083018461037c565b600060208083528351808285015260005b818110156103e1578581018301518582016040015282016103c5565b506000604082860101526040601f19601f8301168501019250505092915050565b8082018082111561042357634e487b7160e01b600052601160045260246000fd5b92915050565b60208101610423828461037c56fea264697066735822122065ef5b4fbbc216f24192182067211cb4e5332c4120429628b00532aec584fdcb64736f6c63430008140033","opcodes":"PUSH1 0x80 PUSH1 0x40 MSTORE CALLVALUE DUP1 ISZERO PUSH2 0x10 JUMPI PUSH1 0x0 DUP1 REVERT JUMPDEST POP PUSH2 0x46D DUP1 PUSH2 0x20 PUSH1 0x0 CODECOPY PUSH1 0x0 RETURN INVALID PUSH1 0x80 PUSH1 0x40 MSTORE CALLVALUE DUP1 ISZERO PUSH2 0x10 JUMPI PUSH1 0x0 DUP1 REVERT JUMPDEST POP PUSH1 0x4 CALLDATASIZE LT PUSH2 0x72 JUMPI PUSH1 0x0 CALLDATALOAD PUSH1 0xE0 SHR DUP1 PUSH4 0xB58B5A10 GT PUSH2 0x50 JUMPI DUP1 PUSH4 0xB58B5A10 EQ PUSH2 0xDB JUMPI DUP1 PUSH4 0xBDEA6E62 EQ PUSH2 0xE3 JUMPI DUP1 PUSH4 0xDFBF53AE EQ PUSH2 0xEC JUMPI PUSH1 0x0 DUP1 REVERT JUMPDEST DUP1 PUSH4 0x2A5C5971 EQ PUSH2 0x77 JUMPI DUP1 PUSH4 0x4FFF6E05 EQ PUSH2 0xBA JUMPI DUP1 PUSH4 0x82FC1DF3 EQ PUSH2 0xD1 JUMPI JUMPDEST PUSH1 0x0 DUP1 REVERT JUMPDEST PUSH2 0xA3 PUSH2 0x85 CALLDATASIZE PUSH1 0x4 PUSH2 0x33F JUMP JUMPDEST PUSH1 0x0 PUSH1 0x20 DUP2 SWAP1 MSTORE SWAP1 DUP2 MSTORE PUSH1 0x40 SWAP1 KECCAK256 SLOAD PUSH1 0xFF DUP1 DUP3 AND SWAP2 PUSH2 0x100 SWAP1 DIV AND DUP3 JUMP JUMPDEST PUSH1 0x40 MLOAD PUSH2 0xB1 SWAP3 SWAP2 SWAP1 PUSH2 0x39E JUMP JUMPDEST PUSH1 0x40 MLOAD DUP1 SWAP2 SUB SWAP1 RETURN JUMPDEST PUSH2 0xC3 PUSH1 0x1 SLOAD DUP2 JUMP JUMPDEST PUSH1 0x40 MLOAD SWAP1 DUP2 MSTORE PUSH1 0x20 ADD PUSH2 0xB1 JUMP JUMPDEST PUSH2 0xD9 PUSH2 0x101 JUMP JUMPDEST STOP JUMPDEST PUSH2 0xD9 PUSH2 0x1C7 JUMP JUMPDEST PUSH2 0xC3 PUSH1 0x2 SLOAD DUP2 JUMP JUMPDEST PUSH2 0xF4 PUSH2 0x27E JUMP JUMPDEST PUSH1 0x40 MLOAD PUSH2 0xB1 SWAP2 SWAP1 PUSH2 0x3B4 JUMP JUMPDEST CALLER PUSH1 0x0 SWAP1 DUP2 MSTORE PUSH1 0x20 DUP2 SWAP1 MSTORE PUSH1 0x40 SWAP1 KECCAK256 SLOAD PUSH1 0xFF AND ISZERO PUSH2 0x156 JUMPI PUSH1 0x40 MLOAD PUSH3 0x461BCD PUSH1 0xE5 SHL DUP2 MSTORE PUSH1 0x20 PUSH1 0x4 DUP3 ADD MSTORE PUSH1 0xD PUSH1 0x24 DUP3 ADD MSTORE PUSH13 0x105B1C9958591E481D9BDD1959 PUSH1 0x9A SHL PUSH1 0x44 DUP3 ADD MSTORE PUSH1 0x64 ADD JUMPDEST PUSH1 0x40 MLOAD DUP1 SWAP2 SUB SWAP1 REVERT JUMPDEST CALLER PUSH1 0x0 SWAP1 DUP2 MSTORE PUSH1 0x20 DUP2 SWAP1 MSTORE PUSH1 0x40 DUP2 KECCAK256 DUP1 SLOAD PUSH2 0xFFFF NOT AND PUSH1 0x1 SWAP1 DUP2 OR SWAP1 SWAP2 SSTORE DUP1 SLOAD SWAP1 SWAP2 DUP3 SWAP2 PUSH2 0x185 SWAP1 DUP4 SWAP1 PUSH2 0x402 JUMP JUMPDEST SWAP1 SWAP2 SSTORE POP POP PUSH1 0x40 MLOAD CALLER SWAP1 PUSH32 0x14075E33DFFDC00C1FCAF75D0F86D667170BE57FB566B12B41B499E5FA53B125 SWAP1 PUSH2 0x1BD SWAP1 PUSH1 0x0 SWAP1 PUSH2 0x429 JUMP JUMPDEST PUSH1 0x40 MLOAD DUP1 SWAP2 SUB SWAP1 LOG2 JUMP JUMPDEST CALLER PUSH1 0x0 SWAP1 DUP2 MSTORE PUSH1 0x20 DUP2 SWAP1 MSTORE PUSH1 0x40 SWAP1 KECCAK256 SLOAD PUSH1 0xFF AND ISZERO PUSH2 0x217 JUMPI PUSH1 0x40 MLOAD PUSH3 0x461BCD PUSH1 0xE5 SHL DUP2 MSTORE PUSH1 0x20 PUSH1 0x4 DUP3 ADD MSTORE PUSH1 0xD PUSH1 0x24 DUP3 ADD MSTORE PUSH13 0x105B1C9958591E481D9BDD1959 PUSH1 0x9A SHL PUSH1 0x44 DUP3 ADD MSTORE PUSH1 0x64 ADD PUSH2 0x14D JUMP JUMPDEST CALLER PUSH1 0x0 SWAP1 DUP2 MSTORE PUSH1 0x20 DUP2 SWAP1 MSTORE PUSH1 0x40 DUP2 KECCAK256 DUP1 SLOAD PUSH2 0xFFFF NOT AND PUSH2 0x101 OR SWAP1 SSTORE PUSH1 0x2 DUP1 SLOAD PUSH1 0x1 SWAP3 SWAP1 PUSH2 0x246 SWAP1 DUP5 SWAP1 PUSH2 0x402 JUMP JUMPDEST SWAP1 SWAP2 SSTORE POP POP PUSH1 0x40 MLOAD CALLER SWAP1 PUSH32 0x14075E33DFFDC00C1FCAF75D0F86D667170BE57FB566B12B41B499E5FA53B125 SWAP1 PUSH2 0x1BD SWAP1 PUSH1 0x1 SWAP1 PUSH2 0x429 JUMP JUMPDEST PUSH1 0x60 PUSH1 0x2 SLOAD PUSH1 0x1 SLOAD SUB PUSH2 0x2C3 JUMPI POP PUSH1 0x40 DUP1 MLOAD DUP1 DUP3 ADD SWAP1 SWAP2 MSTORE PUSH1 0x8 DUP2 MSTORE PUSH32 0x4452415721212121000000000000000000000000000000000000000000000000 PUSH1 0x20 DUP3 ADD MSTORE SWAP1 JUMP JUMPDEST PUSH1 0x2 SLOAD PUSH1 0x1 SLOAD GT ISZERO PUSH2 0x307 JUMPI POP PUSH1 0x40 DUP1 MLOAD DUP1 DUP3 ADD SWAP1 SWAP2 MSTORE PUSH1 0x17 DUP2 MSTORE PUSH32 0x78343032206973207468652057494E4E45522021212121000000000000000000 PUSH1 0x20 DUP3 ADD MSTORE SWAP1 JUMP JUMPDEST POP PUSH1 0x40 DUP1 MLOAD DUP1 DUP3 ADD SWAP1 SWAP2 MSTORE PUSH1 0x1B DUP2 MSTORE PUSH32 0x4175646974696E67206973207468652057494E4E455220212121210000000000 PUSH1 0x20 DUP3 ADD MSTORE SWAP1 JUMP JUMPDEST PUSH1 0x0 PUSH1 0x20 DUP3 DUP5 SUB SLT ISZERO PUSH2 0x351 JUMPI PUSH1 0x0 DUP1 REVERT JUMPDEST DUP2 CALLDATALOAD PUSH20 0xFFFFFFFFFFFFFFFFFFFFFFFFFFFFFFFFFFFFFFFF DUP2 AND DUP2 EQ PUSH2 0x375 JUMPI PUSH1 0x0 DUP1 REVERT JUMPDEST SWAP4 SWAP3 POP POP POP JUMP JUMPDEST PUSH1 0x2 DUP2 LT PUSH2 0x39A JUMPI PUSH4 0x4E487B71 PUSH1 0xE0 SHL PUSH1 0x0 MSTORE PUSH1 0x21 PUSH1 0x4 MSTORE PUSH1 0x24 PUSH1 0x0 REVERT JUMPDEST SWAP1 MSTORE JUMP JUMPDEST DUP3 ISZERO ISZERO DUP2 MSTORE PUSH1 0x40 DUP2 ADD PUSH2 0x375 PUSH1 0x20 DUP4 ADD DUP5 PUSH2 0x37C JUMP JUMPDEST PUSH1 0x0 PUSH1 0x20 DUP1 DUP4 MSTORE DUP4 MLOAD DUP1 DUP3 DUP6 ADD MSTORE PUSH1 0x0 JUMPDEST DUP2 DUP2 LT ISZERO PUSH2 0x3E1 JUMPI DUP6 DUP2 ADD DUP4 ADD MLOAD DUP6 DUP3 ADD PUSH1 0x40 ADD MSTORE DUP3 ADD PUSH2 0x3C5 JUMP JUMPDEST POP PUSH1 0x0 PUSH1 0x40 DUP3 DUP7 ADD ADD MSTORE PUSH1 0x40 PUSH1 0x1F NOT PUSH1 0x1F DUP4 ADD AND DUP6 ADD ADD SWAP3 POP POP POP SWAP3 SWAP2 POP POP JUMP JUMPDEST DUP1 DUP3 ADD DUP1 DUP3 GT ISZERO PUSH2 0x423 JUMPI PUSH4 0x4E487B71 PUSH1 0xE0 SHL PUSH1 0x0 MSTORE PUSH1 0x11 PUSH1 0x4 MSTORE PUSH1 0x24 PUSH1 0x0 REVERT JUMPDEST SWAP3 SWAP2 POP POP JUMP JUMPDEST PUSH1 0x20 DUP2 ADD PUSH2 0x423 DUP3 DUP5 PUSH2 0x37C JUMP INVALID LOG2 PUSH5 0x6970667358 0x22 SLT KECCAK256 PUSH6 0xEF5B4FBBC216 CALLCODE COINBASE SWAP3 XOR KECCAK256 PUSH8 0x211CB4E5332C4120 TIMESTAMP SWAP7 0x28 0xB0 SDIV ORIGIN 0xAE 0xC5 DUP5 REVERT 0xCB PUSH5 0x736F6C6343 STOP ADDMOD EQ STOP CALLER "},"methodIdentifiers":{"auditingVotes()":"bdea6e62","vote_X402()":"82fc1df3","vote_auditing()":"b58b5a10","voterLog(address)":"2a5c5971","winner()":"dfbf53ae","x402Votes()":"4fff6e05"}},"storageLayout":{"storage":[{"astId":1513,"contract":"contracts/Voting.sol:SimpleVoting","label":"voterLog","offset":0,"slot":"0","type":"t_mapping(t_address,t_struct(Voter)1508_storage)"},{"astId":1515,"contract":"contracts/Voting.sol:SimpleVoting","label":"x402Votes","offset":0,"slot":"1","type":"t_uint256"},{"astId":1517,"contract":"contracts/Voting.sol:SimpleVoting","label":"auditingVotes","offset":0,"slot":"2","type":"t_uint256"}],"types":{"t_address":{"encoding":"inplace","label":"address","numberOfBytes":"20"},"t_bool":{"encoding":"inplace","label":"bool","numberOfBytes":"1"},"t_enum(Choices)1502":{"encoding":"inplace","label":"enum SimpleVoting.Choices","numberOfBytes":"1"},"t_mapping(t_address,t_struct(Voter)1508_storage)":{"encoding":"mapping","key":"t_address","label":"mapping(address => struct SimpleVoting.Voter)","numberOfBytes":"32","value":"t_struct(Voter)1508_storage"},"t_struct(Voter)1508_storage":{"encoding":"inplace","label":"struct SimpleVoting.Voter","members":[{"astId":1504,"contract":"contracts/Voting.sol:SimpleVoting","label":"hasVoted","offset":0,"slot":"0","type":"t_bool"},{"astId":1507,"contract":"contracts/Voting.sol:SimpleVoting","label":"votedFor","offset":1,"slot":"0","type":"t_enum(Choices)1502"}],"numberOfBytes":"32"},"t_uint256":{"encoding":"inplace","label":"uint256","numberOfBytes":"32"}}}}}}