{
  "_format": "hh-sol-artifact-1",
  "contractName": "VotingV2",
  "sourceName": "contracts/UpgradeableVoting.sol",
  "abi": [
    {
      "inputs": [],
      "stateMutability": "nonpayable",
      "type": "constructor"
    },
    {
      "anonymous": false,
      "inputs": [
        {
          "indexed": false,
          "internalType": "address",
          "name": "previousAdmin",
          "type": "address"
        },
        {
          "indexed": false,
          "internalType": "address",
          "name": "newAdmin",
          "type": "address"
        }
      ],
      "name": "AdminChanged",
      "type": "event"
    },
    {
      "anonymous": false,
      "inputs": [
        {
          "indexed": true,
          "internalType": "address",
          "name": "beacon",
          "type": "address"
        }
      ],
      "name": "BeaconUpgraded",
      "type": "event"
    },
    {
      "anonymous": false,
      "inputs": [
        {
          "indexed": false,
          "internalType": "uint8",
          "name": "version",
          "type": "uint8"
        }
      ],
      "name": "Initialized",
      "type": "event"
    },
    {
      "anonymous": false,
      "inputs": [
        {
          "indexed": true,
          "internalType": "address",
          "name": "previousOwner",
          "type": "address"
        },
        {
          "indexed": true,
          "internalType": "address",
          "name": "newOwner",
          "type": "address"
        }
      ],
      "name": "OwnershipTransferred",
      "type": "event"
    },
    {
      "anonymous": false,
      "inputs": [
        {
          "indexed": true,
          "internalType": "address",
          "name": "implementation",
          "type": "address"
        }
      ],
      "name": "Upgraded",
      "type": "event"
    },
    {
      "anonymous": false,
      "inputs": [
        {
          "indexed": true,
          "internalType": "address",
          "name": "voter",
          "type": "address"
        },
        {
          "indexed": false,
          "internalType": "string",
          "name": "option",
          "type": "string"
        }
      ],
      "name": "Voted",
      "type": "event"
    },
    {
      "inputs": [],
      "name": "duration",
      "outputs": [
        {
          "internalType": "uint256",
          "name": "",
          "type": "uint256"
        }
      ],
      "stateMutability": "view",
      "type": "function"
    },
    {
      "inputs": [],
      "name": "option1",
      "outputs": [
        {
          "internalType": "string",
          "name": "",
          "type": "string"
        }
      ],
      "stateMutability": "view",
      "type": "function"
    },
    {
      "inputs": [],
      "name": "option1Votes",
      "outputs": [
        {
          "internalType": "uint256",
          "name": "",
          "type": "uint256"
        }
      ],
      "stateMutability": "view",
      "type": "function"
    },
    {
      "inputs": [],
      "name": "option2",
      "outputs": [
        {
          "internalType": "string",
          "name": "",
          "type": "string"
        }
      ],
      "stateMutability": "view",
      "type": "function"
    },
    {
      "inputs": [],
      "name": "option2Votes",
      "outputs": [
        {
          "internalType": "uint256",
          "name": "",
          "type": "uint256"
        }
      ],
      "stateMutability": "view",
      "type": "function"
    },
    {
      "inputs": [],
      "name": "owner",
      "outputs": [
        {
          "internalType": "address",
          "name": "",
          "type": "address"
        }
      ],
      "stateMutability": "view",
      "type": "function"
    },
    {
      "inputs": [],
      "name": "proxiableUUID",
      "outputs": [
        {
          "internalType": "bytes32",
          "name": "",
          "type": "bytes32"
        }
      ],
      "stateMutability": "view",
      "type": "function"
    },
    {
      "inputs": [
        {
          "internalType": "uint256",
          "name": "_duration",
          "type": "uint256"
        }
      ],
      "name": "reinitialize",
      "outputs": [],
      "stateMutability": "nonpayable",
      "type": "function"
    },
    {
      "inputs": [],
      "name": "renounceOwnership",
      "outputs": [],
      "stateMutability": "nonpayable",
      "type": "function"
    },
    {
      "inputs": [],
      "name": "startTime",
      "outputs": [
        {
          "internalType": "uint256",
          "name": "",
          "type": "uint256"
        }
      ],
      "stateMutability": "view",
      "type": "function"
    },
    {
      "inputs": [
        {
          "internalType": "address",
          "name": "newOwner",
          "type": "address"
        }
      ],
      "name": "transferOwnership",
      "outputs": [],
      "stateMutability": "nonpayable",
      "type": "function"
    },
    {
      "inputs": [
        {
          "internalType": "address",
          "name": "newImplementation",
          "type": "address"
        }
      ],
      "name": "upgradeTo",
      "outputs": [],
      "stateMutability": "nonpayable",
      "type": "function"
    },
    {
      "inputs": [
        {
          "internalType": "address",
          "name": "newImplementation",
          "type": "address"
        },
        {
          "internalType": "bytes",
          "name": "data",
          "type": "bytes"
        }
      ],
      "name": "upgradeToAndCall",
      "outputs": [],
      "stateMutability": "payable",
      "type": "function"
    },
    {
      "inputs": [],
      "name": "viewOptions",
      "outputs": [
        {
          "internalType": "string",
          "name": "",
          "type": "string"
        }
      ],
      "stateMutability": "view",
      "type": "function"
    },
    {
      "inputs": [
        {
          "internalType": "uint256",
          "name": "option",
          "type": "uint256"
        }
      ],
      "name": "vote",
      "outputs": [],
      "stateMutability": "nonpayable",
      "type": "function"
    },
    {
      "inputs": [
        {
          "internalType": "address",
          "name": "",
          "type": "address"
        }
      ],
      "name": "voterLog",
      "outputs": [
        {
          "internalType": "bool",
          "name": "hasVoted",
          "type": "bool"
        },
        {
          "internalType": "string",
          "name": "votedFor",
          "type": "string"
        }
      ],
      "stateMutability": "view",
      "type": "function"
    },
    {
      "inputs": [],
      "name": "winner",
      "outputs": [
        {
          "internalType": "string",
          "name": "",
          "type": "string"
        }
      ],
      "stateMutability": "view",
      "type": "function"
    }
  ],
  "bytecode": "0x60a06040523060805234801561001457600080fd5b5061001d610022565b6100e1565b600054610100900460ff161561008e5760405162461bcd60e51b815260206004820152602760248201527f496e697469616c697a61626c653a20636f6e747261637420697320696e697469604482015266616c697a696e6760c81b606482015260840160405180910390fd5b60005460ff908116146100df576000805460ff191660ff9081179091556040519081527f7f26b83ff96e1f2b6a682f133852f6798a09c465da95921460cefb38474024989060200160405180910390a15b565b608051611795610118600039600081816105a70152818161062c01528181610722015281816107a7015261088d01526117956000f3fe60806040526004361061010e5760003560e01c806378e97925116100a5578063b4de238411610074578063dfbf53ae11610059578063dfbf53ae1461029f578063f2fde38b146102b4578063ffb6c6b6146102d457600080fd5b8063b4de238414610274578063c0db3c601461028a57600080fd5b806378e97925146101ff5780638da5cb5b1461021557806392d2e4381461023d578063ad69ab951461025f57600080fd5b80634d2c6c12116100e15780634d2c6c12146101ac5780634f1ef286146101c257806352d1902d146101d5578063715018a6146101ea57600080fd5b80630121b93f146101135780630fb5a6b4146101355780632a5c59711461015e5780633659cfe61461018c575b600080fd5b34801561011f57600080fd5b5061013361012e3660046111f9565b6102f4565b005b34801561014157600080fd5b5061014b60ce5481565b6040519081526020015b60405180910390f35b34801561016a57600080fd5b5061017e61017936600461122e565b6104f4565b604051610155929190611299565b34801561019857600080fd5b506101336101a736600461122e565b61059d565b3480156101b857600080fd5b5061014b60ca5481565b6101336101d03660046112ca565b610718565b3480156101e157600080fd5b5061014b610880565b3480156101f657600080fd5b50610133610945565b34801561020b57600080fd5b5061014b60cf5481565b34801561022157600080fd5b506033546040516001600160a01b039091168152602001610155565b34801561024957600080fd5b50610252610959565b604051610155919061138c565b34801561026b57600080fd5b506102526109e7565b34801561028057600080fd5b5061014b60c95481565b34801561029657600080fd5b506102526109f4565b3480156102ab57600080fd5b50610252610a1f565b3480156102c057600080fd5b506101336102cf36600461122e565b610af2565b3480156102e057600080fd5b506101336102ef3660046111f9565b610b7f565b60ce5460cf5461030491906113b5565b42106103575760405162461bcd60e51b815260206004820152601360248201527f566f74696e672074696d65206973206f7665720000000000000000000000000060448201526064015b60405180910390fd5b6033546001600160a01b031633036103b15760405162461bcd60e51b815260206004820152601160248201527f4f776e65722063616e6e6f7420766f7465000000000000000000000000000000604482015260640161034e565b33600090815260cb60205260409020805460ff16156104125760405162461bcd60e51b815260206004820152600d60248201527f416c726561647920766f74656400000000000000000000000000000000000000604482015260640161034e565b805460ff191660019081178255829003610491576001810161043560cc82611450565b5060c9805490600061044683611531565b9190505550336001600160a01b03167fcb6783276e8a4347387036bbfea000268f0a4b1f8c46ac79980609f2af8d2acd60cc604051610485919061154a565b60405180910390a25050565b600181016104a060cd82611450565b5060ca80549060006104b183611531565b9190505550336001600160a01b03167fcb6783276e8a4347387036bbfea000268f0a4b1f8c46ac79980609f2af8d2acd60cd604051610485919061154a565b5050565b60cb602052600090815260409020805460018201805460ff909216929161051a906113c8565b80601f0160208091040260200160405190810160405280929190818152602001828054610546906113c8565b80156105935780601f1061056857610100808354040283529160200191610593565b820191906000526020600020905b81548152906001019060200180831161057657829003601f168201915b5050505050905082565b6001600160a01b037f000000000000000000000000000000000000000000000000000000000000000016300361062a5760405162461bcd60e51b815260206004820152602c60248201527f46756e6374696f6e206d7573742062652063616c6c6564207468726f7567682060448201526b19195b1959d85d1958d85b1b60a21b606482015260840161034e565b7f00000000000000000000000000000000000000000000000000000000000000006001600160a01b03166106857f360894a13ba1a3210667c828492db98dca3e2076cc3735a920a3ca505d382bbc546001600160a01b031690565b6001600160a01b0316146106f05760405162461bcd60e51b815260206004820152602c60248201527f46756e6374696f6e206d7573742062652063616c6c6564207468726f7567682060448201526b6163746976652070726f787960a01b606482015260840161034e565b6106f981610c86565b6040805160008082526020820190925261071591839190610c8e565b50565b6001600160a01b037f00000000000000000000000000000000000000000000000000000000000000001630036107a55760405162461bcd60e51b815260206004820152602c60248201527f46756e6374696f6e206d7573742062652063616c6c6564207468726f7567682060448201526b19195b1959d85d1958d85b1b60a21b606482015260840161034e565b7f00000000000000000000000000000000000000000000000000000000000000006001600160a01b03166108007f360894a13ba1a3210667c828492db98dca3e2076cc3735a920a3ca505d382bbc546001600160a01b031690565b6001600160a01b03161461086b5760405162461bcd60e51b815260206004820152602c60248201527f46756e6374696f6e206d7573742062652063616c6c6564207468726f7567682060448201526b6163746976652070726f787960a01b606482015260840161034e565b61087482610c86565b6104f082826001610c8e565b6000306001600160a01b037f000000000000000000000000000000000000000000000000000000000000000016146109205760405162461bcd60e51b815260206004820152603860248201527f555550535570677261646561626c653a206d757374206e6f742062652063616c60448201527f6c6564207468726f7567682064656c656761746563616c6c0000000000000000606482015260840161034e565b507f360894a13ba1a3210667c828492db98dca3e2076cc3735a920a3ca505d382bbc90565b61094d610e33565b6109576000610e8d565b565b60cc8054610966906113c8565b80601f0160208091040260200160405190810160405280929190818152602001828054610992906113c8565b80156109df5780601f106109b4576101008083540402835291602001916109df565b820191906000526020600020905b8154815290600101906020018083116109c257829003601f168201915b505050505081565b60cd8054610966906113c8565b606060cc60cd604051602001610a0b929190611648565b604051602081830303815290604052905090565b606060ce5460cf54610a3191906113b5565b4211610a7f5760405162461bcd60e51b815260206004820152601460248201527f566f74696e67206973207374696c6c206f70656e000000000000000000000000604482015260640161034e565b60ca5460c95403610ac2575060408051808201909152600f81527f4954532041204452415721212121210000000000000000000000000000000000602082015290565b60ca5460c9541115610ae05760cc604051602001610a0b91906116b3565b60cd604051602001610a0b91906116b3565b610afa610e33565b6001600160a01b038116610b765760405162461bcd60e51b815260206004820152602660248201527f4f776e61626c653a206e6577206f776e657220697320746865207a65726f206160448201527f6464726573730000000000000000000000000000000000000000000000000000606482015260840161034e565b61071581610e8d565b600054600290610100900460ff16158015610ba1575060005460ff8083169116105b610c135760405162461bcd60e51b815260206004820152602e60248201527f496e697469616c697a61626c653a20636f6e747261637420697320616c72656160448201527f647920696e697469616c697a6564000000000000000000000000000000000000606482015260840161034e565b6000805461ffff191660ff831617610100179055610c2f610eec565b610c3a82603c6116ec565b60ce554260cf556000805461ff001916905560405160ff821681527f7f26b83ff96e1f2b6a682f133852f6798a09c465da95921460cefb38474024989060200160405180910390a15050565b610715610e33565b7f4910fdfa16fed3260ed0e7147f7cc6da11a60208b5b9406d12a635614ffd91435460ff1615610cc657610cc183610f72565b505050565b826001600160a01b03166352d1902d6040518163ffffffff1660e01b8152600401602060405180830381865afa925050508015610d20575060408051601f3d908101601f19168201909252610d1d91810190611703565b60015b610d925760405162461bcd60e51b815260206004820152602e60248201527f45524331393637557067726164653a206e657720696d706c656d656e7461746960448201527f6f6e206973206e6f742055555053000000000000000000000000000000000000606482015260840161034e565b7f360894a13ba1a3210667c828492db98dca3e2076cc3735a920a3ca505d382bbc8114610e275760405162461bcd60e51b815260206004820152602960248201527f45524331393637557067726164653a20756e737570706f727465642070726f7860448201527f6961626c65555549440000000000000000000000000000000000000000000000606482015260840161034e565b50610cc183838361103d565b6033546001600160a01b031633146109575760405162461bcd60e51b815260206004820181905260248201527f4f776e61626c653a2063616c6c6572206973206e6f7420746865206f776e6572604482015260640161034e565b603380546001600160a01b0383811673ffffffffffffffffffffffffffffffffffffffff19831681179093556040519116919082907f8be0079c531659141344cd1fd0a4f28419497f9722a3daafe3b4186f6b6457e090600090a35050565b600054610100900460ff16610f695760405162461bcd60e51b815260206004820152602b60248201527f496e697469616c697a61626c653a20636f6e7472616374206973206e6f74206960448201527f6e697469616c697a696e67000000000000000000000000000000000000000000606482015260840161034e565b61095733610e8d565b6001600160a01b0381163b610fef5760405162461bcd60e51b815260206004820152602d60248201527f455243313936373a206e657720696d706c656d656e746174696f6e206973206e60448201527f6f74206120636f6e747261637400000000000000000000000000000000000000606482015260840161034e565b7f360894a13ba1a3210667c828492db98dca3e2076cc3735a920a3ca505d382bbc805473ffffffffffffffffffffffffffffffffffffffff19166001600160a01b0392909216919091179055565b61104683611068565b6000825111806110535750805b15610cc15761106283836110a8565b50505050565b61107181610f72565b6040516001600160a01b038216907fbc7cd75a20ee27fd9adebab32041f755214dbc6bffa90cc0225b39da2e5c2d3b90600090a250565b60606110cd8383604051806060016040528060278152602001611739602791396110d6565b90505b92915050565b6060600080856001600160a01b0316856040516110f3919061171c565b600060405180830381855af49150503d806000811461112e576040519150601f19603f3d011682016040523d82523d6000602084013e611133565b606091505b50915091506111448683838761114e565b9695505050505050565b606083156111bd5782516000036111b6576001600160a01b0385163b6111b65760405162461bcd60e51b815260206004820152601d60248201527f416464726573733a2063616c6c20746f206e6f6e2d636f6e7472616374000000604482015260640161034e565b50816111c7565b6111c783836111cf565b949350505050565b8151156111df5781518083602001fd5b8060405162461bcd60e51b815260040161034e919061138c565b60006020828403121561120b57600080fd5b5035919050565b80356001600160a01b038116811461122957600080fd5b919050565b60006020828403121561124057600080fd5b6110cd82611212565b60005b8381101561126457818101518382015260200161124c565b50506000910152565b60008151808452611285816020860160208601611249565b601f01601f19169290920160200192915050565b82151581526040602082015260006111c7604083018461126d565b634e487b7160e01b600052604160045260246000fd5b600080604083850312156112dd57600080fd5b6112e683611212565b9150602083013567ffffffffffffffff8082111561130357600080fd5b818501915085601f83011261131757600080fd5b813581811115611329576113296112b4565b604051601f8201601f19908116603f01168101908382118183101715611351576113516112b4565b8160405282815288602084870101111561136a57600080fd5b8260208601602083013760006020848301015280955050505050509250929050565b6020815260006110cd602083018461126d565b634e487b7160e01b600052601160045260246000fd5b808201808211156110d0576110d061139f565b600181811c908216806113dc57607f821691505b6020821081036113fc57634e487b7160e01b600052602260045260246000fd5b50919050565b601f821115610cc157600081815260208120601f850160051c810160208610156114295750805b601f850160051c820191505b8181101561144857828155600101611435565b505050505050565b81810361145b575050565b61146582546113c8565b67ffffffffffffffff81111561147d5761147d6112b4565b6114918161148b84546113c8565b84611402565b6000601f8211600181146114c557600083156114ad5750848201545b600019600385901b1c1916600184901b17845561152a565b600085815260209020601f19841690600086815260209020845b838110156114ff57828601548255600195860195909101906020016114df565b508583101561151d5781850154600019600388901b60f8161c191681555b50505060018360011b0184555b5050505050565b6000600182016115435761154361139f565b5060010190565b600060208083526000845461155e816113c8565b8084870152604060018084166000811461157f5760018114611599576115c7565b60ff1985168984015283151560051b8901830195506115c7565b896000528660002060005b858110156115bf5781548b82018601529083019088016115a4565b8a0184019650505b509398975050505050505050565b600081546115e2816113c8565b600182811680156115fa576001811461160f5761163e565b60ff198416875282151583028701945061163e565b8560005260208060002060005b858110156116355781548a82015290840190820161161c565b50505082870194505b5050505092915050565b7f53656c656374203120666f7220000000000000000000000000000000000000008152600061167a600d8301856115d5565b7f200a2053656c656374203220666f72200000000000000000000000000000000081526116aa60108201856115d5565b95945050505050565b60006116bf82846115d5565b7f2057494e532121212121210000000000000000000000000000000000000000008152600b019392505050565b80820281158282048414176110d0576110d061139f565b60006020828403121561171557600080fd5b5051919050565b6000825161172e818460208701611249565b919091019291505056fe416464726573733a206c6f772d6c6576656c2064656c65676174652063616c6c206661696c6564a2646970667358221220f3748a33e317e431b989ec6427f2230c3edf215afb0be4c60b5fdfeeb0f2760564736f6c63430008140033",
  "linkReferences": {},
  "deployedLinkReferences": {}
}