{
  "_format": "hh-sol-artifact-1",
  "contractName": "VotingV1",
  "sourceName": "contracts/UpgradeableVoting.sol",
  "abi": [
    {
      "inputs": [],
      "stateMutability": "nonpayable",
      "type": "constructor"
    },
    {
      "anonymous": false,
      "inputs": [
        {
          "indexed": false,
          "internalType": "address",
          "name": "previousAdmin",
          "type": "address"
        },
        {
          "indexed": false,
          "internalType": "address",
          "name": "newAdmin",
          "type": "address"
        }
      ],
      "name": "AdminChanged",
      "type": "event"
    },
    {
      "anonymous": false,
      "inputs": [
        {
          "indexed": true,
          "internalType": "address",
          "name": "beacon",
          "type": "address"
        }
      ],
      "name": "BeaconUpgraded",
      "type": "event"
    },
    {
      "anonymous": false,
      "inputs": [
        {
          "indexed": false,
          "internalType": "uint8",
          "name": "version",
          "type": "uint8"
        }
      ],
      "name": "Initialized",
      "type": "event"
    },
    {
      "anonymous": false,
      "inputs": [
        {
          "indexed": true,
          "internalType": "address",
          "name": "previousOwner",
          "type": "address"
        },
        {
          "indexed": true,
          "internalType": "address",
          "name": "newOwner",
          "type": "address"
        }
      ],
      "name": "OwnershipTransferred",
      "type": "event"
    },
    {
      "anonymous": false,
      "inputs": [
        {
          "indexed": true,
          "internalType": "address",
          "name": "implementation",
          "type": "address"
        }
      ],
      "name": "Upgraded",
      "type": "event"
    },
    {
      "anonymous": false,
      "inputs": [
        {
          "indexed": true,
          "internalType": "address",
          "name": "voter",
          "type": "address"
        },
        {
          "indexed": false,
          "internalType": "string",
          "name": "option",
          "type": "string"
        }
      ],
      "name": "Voted",
      "type": "event"
    },
    {
      "inputs": [
        {
          "internalType": "string",
          "name": "_option1",
          "type": "string"
        },
        {
          "internalType": "string",
          "name": "_option2",
          "type": "string"
        }
      ],
      "name": "initialize",
      "outputs": [],
      "stateMutability": "nonpayable",
      "type": "function"
    },
    {
      "inputs": [],
      "name": "option1",
      "outputs": [
        {
          "internalType": "string",
          "name": "",
          "type": "string"
        }
      ],
      "stateMutability": "view",
      "type": "function"
    },
    {
      "inputs": [],
      "name": "option1Votes",
      "outputs": [
        {
          "internalType": "uint256",
          "name": "",
          "type": "uint256"
        }
      ],
      "stateMutability": "view",
      "type": "function"
    },
    {
      "inputs": [],
      "name": "option2",
      "outputs": [
        {
          "internalType": "string",
          "name": "",
          "type": "string"
        }
      ],
      "stateMutability": "view",
      "type": "function"
    },
    {
      "inputs": [],
      "name": "option2Votes",
      "outputs": [
        {
          "internalType": "uint256",
          "name": "",
          "type": "uint256"
        }
      ],
      "stateMutability": "view",
      "type": "function"
    },
    {
      "inputs": [],
      "name": "owner",
      "outputs": [
        {
          "internalType": "address",
          "name": "",
          "type": "address"
        }
      ],
      "stateMutability": "view",
      "type": "function"
    },
    {
      "inputs": [],
      "name": "proxiableUUID",
      "outputs": [
        {
          "internalType": "bytes32",
          "name": "",
          "type": "bytes32"
        }
      ],
      "stateMutability": "view",
      "type": "function"
    },
    {
      "inputs": [],
      "name": "renounceOwnership",
      "outputs": [],
      "stateMutability": "nonpayable",
      "type": "function"
    },
    {
      "inputs": [
        {
          "internalType": "address",
          "name": "newOwner",
          "type": "address"
        }
      ],
      "name": "transferOwnership",
      "outputs": [],
      "stateMutability": "nonpayable",
      "type": "function"
    },
    {
      "inputs": [
        {
          "internalType": "address",
          "name": "newImplementation",
          "type": "address"
        }
      ],
      "name": "upgradeTo",
      "outputs": [],
      "stateMutability": "nonpayable",
      "type": "function"
    },
    {
      "inputs": [
        {
          "internalType": "address",
          "name": "newImplementation",
          "type": "address"
        },
        {
          "internalType": "bytes",
          "name": "data",
          "type": "bytes"
        }
      ],
      "name": "upgradeToAndCall",
      "outputs": [],
      "stateMutability": "payable",
      "type": "function"
    },
    {
      "inputs": [],
      "name": "viewOptions",
      "outputs": [
        {
          "internalType": "string",
          "name": "",
          "type": "string"
        }
      ],
      "stateMutability": "view",
      "type": "function"
    },
    {
      "inputs": [
        {
          "internalType": "uint256",
          "name": "option",
          "type": "uint256"
        }
      ],
      "name": "vote",
      "outputs": [],
      "stateMutability": "nonpayable",
      "type": "function"
    },
    {
      "inputs": [
        {
          "internalType": "address",
          "name": "",
          "type": "address"
        }
      ],
      "name": "voterLog",
      "outputs": [
        {
          "internalType": "bool",
          "name": "hasVoted",
          "type": "bool"
        },
        {
          "internalType": "string",
          "name": "votedFor",
          "type": "string"
        }
      ],
      "stateMutability": "view",
      "type": "function"
    },
    {
      "inputs": [],
      "name": "winner",
      "outputs": [
        {
          "internalType": "string",
          "name": "",
          "type": "string"
        }
      ],
      "stateMutability": "view",
      "type": "function"
    }
  ],
  "bytecode": "0x60a06040523060805234801561001457600080fd5b5061001d610022565b6100e1565b600054610100900460ff161561008e5760405162461bcd60e51b815260206004820152602760248201527f496e697469616c697a61626c653a20636f6e747261637420697320696e697469604482015266616c697a696e6760c81b606482015260840160405180910390fd5b60005460ff908116146100df576000805460ff191660ff9081179091556040519081527f7f26b83ff96e1f2b6a682f133852f6798a09c465da95921460cefb38474024989060200160405180910390a15b565b6080516118a5610118600039600081816104fb01528181610580015281816107ba0152818161083f015261092501526118a56000f3fe6080604052600436106100e85760003560e01c8063715018a61161008a578063b4de238411610059578063b4de238414610246578063c0db3c601461025c578063dfbf53ae14610271578063f2fde38b1461028657600080fd5b8063715018a6146101d25780638da5cb5b146101e757806392d2e4381461020f578063ad69ab951461023157600080fd5b80634cd88b76116100c65780634cd88b76146101665780634d2c6c12146101865780634f1ef286146101aa57806352d1902d146101bd57600080fd5b80630121b93f146100ed5780632a5c59711461010f5780633659cfe614610146575b600080fd5b3480156100f957600080fd5b5061010d6101083660046111f1565b6102a6565b005b34801561011b57600080fd5b5061012f61012a366004611226565b610448565b60405161013d929190611291565b60405180910390f35b34801561015257600080fd5b5061010d610161366004611226565b6104f1565b34801561017257600080fd5b5061010d610181366004611358565b61066c565b34801561019257600080fd5b5061019c60ca5481565b60405190815260200161013d565b61010d6101b83660046113bc565b6107b0565b3480156101c957600080fd5b5061019c610918565b3480156101de57600080fd5b5061010d6109dd565b3480156101f357600080fd5b506033546040516001600160a01b03909116815260200161013d565b34801561021b57600080fd5b506102246109f1565b60405161013d9190611414565b34801561023d57600080fd5b50610224610a7f565b34801561025257600080fd5b5061019c60c95481565b34801561026857600080fd5b50610224610a8c565b34801561027d57600080fd5b50610224610ab7565b34801561029257600080fd5b5061010d6102a1366004611226565b610b2c565b6033546001600160a01b031633036103055760405162461bcd60e51b815260206004820152601160248201527f4f776e65722063616e6e6f7420766f746500000000000000000000000000000060448201526064015b60405180910390fd5b33600090815260cb60205260409020805460ff16156103665760405162461bcd60e51b815260206004820152600d60248201527f416c726561647920766f7465640000000000000000000000000000000000000060448201526064016102fc565b805460ff1916600190811782558290036103e5576001810161038960cc826114af565b5060c9805490600061039a83611590565b9190505550336001600160a01b03167fcb6783276e8a4347387036bbfea000268f0a4b1f8c46ac79980609f2af8d2acd60cc6040516103d991906115b7565b60405180910390a25050565b600181016103f460cd826114af565b5060ca805490600061040583611590565b9190505550336001600160a01b03167fcb6783276e8a4347387036bbfea000268f0a4b1f8c46ac79980609f2af8d2acd60cd6040516103d991906115b7565b5050565b60cb602052600090815260409020805460018201805460ff909216929161046e90611427565b80601f016020809104026020016040519081016040528092919081815260200182805461049a90611427565b80156104e75780601f106104bc576101008083540402835291602001916104e7565b820191906000526020600020905b8154815290600101906020018083116104ca57829003601f168201915b5050505050905082565b6001600160a01b037f000000000000000000000000000000000000000000000000000000000000000016300361057e5760405162461bcd60e51b815260206004820152602c60248201527f46756e6374696f6e206d7573742062652063616c6c6564207468726f7567682060448201526b19195b1959d85d1958d85b1b60a21b60648201526084016102fc565b7f00000000000000000000000000000000000000000000000000000000000000006001600160a01b03166105d97f360894a13ba1a3210667c828492db98dca3e2076cc3735a920a3ca505d382bbc546001600160a01b031690565b6001600160a01b0316146106445760405162461bcd60e51b815260206004820152602c60248201527f46756e6374696f6e206d7573742062652063616c6c6564207468726f7567682060448201526b6163746976652070726f787960a01b60648201526084016102fc565b61064d81610bb9565b6040805160008082526020820190925261066991839190610bc1565b50565b600054610100900460ff161580801561068c5750600054600160ff909116105b806106a65750303b1580156106a6575060005460ff166001145b6107185760405162461bcd60e51b815260206004820152602e60248201527f496e697469616c697a61626c653a20636f6e747261637420697320616c72656160448201527f647920696e697469616c697a656400000000000000000000000000000000000060648201526084016102fc565b6000805460ff19166001179055801561073b576000805461ff0019166101001790555b610743610d61565b61074b610dd4565b60cc6107578482611642565b5060cd6107648382611642565b5080156107ab576000805461ff0019169055604051600181527f7f26b83ff96e1f2b6a682f133852f6798a09c465da95921460cefb38474024989060200160405180910390a15b505050565b6001600160a01b037f000000000000000000000000000000000000000000000000000000000000000016300361083d5760405162461bcd60e51b815260206004820152602c60248201527f46756e6374696f6e206d7573742062652063616c6c6564207468726f7567682060448201526b19195b1959d85d1958d85b1b60a21b60648201526084016102fc565b7f00000000000000000000000000000000000000000000000000000000000000006001600160a01b03166108987f360894a13ba1a3210667c828492db98dca3e2076cc3735a920a3ca505d382bbc546001600160a01b031690565b6001600160a01b0316146109035760405162461bcd60e51b815260206004820152602c60248201527f46756e6374696f6e206d7573742062652063616c6c6564207468726f7567682060448201526b6163746976652070726f787960a01b60648201526084016102fc565b61090c82610bb9565b61044482826001610bc1565b6000306001600160a01b037f000000000000000000000000000000000000000000000000000000000000000016146109b85760405162461bcd60e51b815260206004820152603860248201527f555550535570677261646561626c653a206d757374206e6f742062652063616c60448201527f6c6564207468726f7567682064656c656761746563616c6c000000000000000060648201526084016102fc565b507f360894a13ba1a3210667c828492db98dca3e2076cc3735a920a3ca505d382bbc90565b6109e5610e3f565b6109ef6000610e99565b565b60cc80546109fe90611427565b80601f0160208091040260200160405190810160405280929190818152602001828054610a2a90611427565b8015610a775780601f10610a4c57610100808354040283529160200191610a77565b820191906000526020600020905b815481529060010190602001808311610a5a57829003601f168201915b505050505081565b60cd80546109fe90611427565b606060cc60cd604051602001610aa392919061176f565b604051602081830303815290604052905090565b606060ca5460c95403610afc575060408051808201909152600f81527f4954532041204452415721212121210000000000000000000000000000000000602082015290565b60ca5460c9541115610b1a5760cc604051602001610aa391906117da565b60cd604051602001610aa391906117da565b610b34610e3f565b6001600160a01b038116610bb05760405162461bcd60e51b815260206004820152602660248201527f4f776e61626c653a206e6577206f776e657220697320746865207a65726f206160448201527f646472657373000000000000000000000000000000000000000000000000000060648201526084016102fc565b61066981610e99565b610669610e3f565b7f4910fdfa16fed3260ed0e7147f7cc6da11a60208b5b9406d12a635614ffd91435460ff1615610bf4576107ab83610ef8565b826001600160a01b03166352d1902d6040518163ffffffff1660e01b8152600401602060405180830381865afa925050508015610c4e575060408051601f3d908101601f19168201909252610c4b91810190611813565b60015b610cc05760405162461bcd60e51b815260206004820152602e60248201527f45524331393637557067726164653a206e657720696d706c656d656e7461746960448201527f6f6e206973206e6f74205555505300000000000000000000000000000000000060648201526084016102fc565b7f360894a13ba1a3210667c828492db98dca3e2076cc3735a920a3ca505d382bbc8114610d555760405162461bcd60e51b815260206004820152602960248201527f45524331393637557067726164653a20756e737570706f727465642070726f7860448201527f6961626c6555554944000000000000000000000000000000000000000000000060648201526084016102fc565b506107ab838383610fc3565b600054610100900460ff16610dcc5760405162461bcd60e51b815260206004820152602b60248201527f496e697469616c697a61626c653a20636f6e7472616374206973206e6f74206960448201526a6e697469616c697a696e6760a81b60648201526084016102fc565b6109ef610fee565b600054610100900460ff166109ef5760405162461bcd60e51b815260206004820152602b60248201527f496e697469616c697a61626c653a20636f6e7472616374206973206e6f74206960448201526a6e697469616c697a696e6760a81b60648201526084016102fc565b6033546001600160a01b031633146109ef5760405162461bcd60e51b815260206004820181905260248201527f4f776e61626c653a2063616c6c6572206973206e6f7420746865206f776e657260448201526064016102fc565b603380546001600160a01b0383811673ffffffffffffffffffffffffffffffffffffffff19831681179093556040519116919082907f8be0079c531659141344cd1fd0a4f28419497f9722a3daafe3b4186f6b6457e090600090a35050565b6001600160a01b0381163b610f755760405162461bcd60e51b815260206004820152602d60248201527f455243313936373a206e657720696d706c656d656e746174696f6e206973206e60448201527f6f74206120636f6e74726163740000000000000000000000000000000000000060648201526084016102fc565b7f360894a13ba1a3210667c828492db98dca3e2076cc3735a920a3ca505d382bbc805473ffffffffffffffffffffffffffffffffffffffff19166001600160a01b0392909216919091179055565b610fcc83611062565b600082511180610fd95750805b156107ab57610fe883836110a2565b50505050565b600054610100900460ff166110595760405162461bcd60e51b815260206004820152602b60248201527f496e697469616c697a61626c653a20636f6e7472616374206973206e6f74206960448201526a6e697469616c697a696e6760a81b60648201526084016102fc565b6109ef33610e99565b61106b81610ef8565b6040516001600160a01b038216907fbc7cd75a20ee27fd9adebab32041f755214dbc6bffa90cc0225b39da2e5c2d3b90600090a250565b60606110c78383604051806060016040528060278152602001611849602791396110ce565b9392505050565b6060600080856001600160a01b0316856040516110eb919061182c565b600060405180830381855af49150503d8060008114611126576040519150601f19603f3d011682016040523d82523d6000602084013e61112b565b606091505b509150915061113c86838387611146565b9695505050505050565b606083156111b55782516000036111ae576001600160a01b0385163b6111ae5760405162461bcd60e51b815260206004820152601d60248201527f416464726573733a2063616c6c20746f206e6f6e2d636f6e747261637400000060448201526064016102fc565b50816111bf565b6111bf83836111c7565b949350505050565b8151156111d75781518083602001fd5b8060405162461bcd60e51b81526004016102fc9190611414565b60006020828403121561120357600080fd5b5035919050565b80356001600160a01b038116811461122157600080fd5b919050565b60006020828403121561123857600080fd5b6110c78261120a565b60005b8381101561125c578181015183820152602001611244565b50506000910152565b6000815180845261127d816020860160208601611241565b601f01601f19169290920160200192915050565b82151581526040602082015260006111bf6040830184611265565b634e487b7160e01b600052604160045260246000fd5b600067ffffffffffffffff808411156112dd576112dd6112ac565b604051601f8501601f19908116603f01168101908282118183101715611305576113056112ac565b8160405280935085815286868601111561131e57600080fd5b858560208301376000602087830101525050509392505050565b600082601f83011261134957600080fd5b6110c7838335602085016112c2565b6000806040838503121561136b57600080fd5b823567ffffffffffffffff8082111561138357600080fd5b61138f86838701611338565b935060208501359150808211156113a557600080fd5b506113b285828601611338565b9150509250929050565b600080604083850312156113cf57600080fd5b6113d88361120a565b9150602083013567ffffffffffffffff8111156113f457600080fd5b8301601f8101851361140557600080fd5b6113b2858235602084016112c2565b6020815260006110c76020830184611265565b600181811c9082168061143b57607f821691505b60208210810361145b57634e487b7160e01b600052602260045260246000fd5b50919050565b601f8211156107ab57600081815260208120601f850160051c810160208610156114885750805b601f850160051c820191505b818110156114a757828155600101611494565b505050505050565b8181036114ba575050565b6114c48254611427565b67ffffffffffffffff8111156114dc576114dc6112ac565b6114f0816114ea8454611427565b84611461565b6000601f821160018114611524576000831561150c5750848201545b600019600385901b1c1916600184901b178455611589565b600085815260209020601f19841690600086815260209020845b8381101561155e578286015482556001958601959091019060200161153e565b508583101561157c5781850154600019600388901b60f8161c191681555b50505060018360011b0184555b5050505050565b6000600182016115b057634e487b7160e01b600052601160045260246000fd5b5060010190565b60006020808352600084546115cb81611427565b808487015260406001808416600081146115ec576001811461160657611634565b60ff1985168984015283151560051b890183019550611634565b896000528660002060005b8581101561162c5781548b8201860152908301908801611611565b8a0184019650505b509398975050505050505050565b815167ffffffffffffffff81111561165c5761165c6112ac565b61166a816114ea8454611427565b602080601f83116001811461169f57600084156116875750858301515b600019600386901b1c1916600185901b1785556114a7565b600085815260208120601f198616915b828110156116ce578886015182559484019460019091019084016116af565b50858210156116ec5787850151600019600388901b60f8161c191681555b5050505050600190811b01905550565b6000815461170981611427565b60018281168015611721576001811461173657611765565b60ff1984168752821515830287019450611765565b8560005260208060002060005b8581101561175c5781548a820152908401908201611743565b50505082870194505b5050505092915050565b7f53656c656374203120666f722000000000000000000000000000000000000000815260006117a1600d8301856116fc565b7f200a2053656c656374203220666f72200000000000000000000000000000000081526117d160108201856116fc565b95945050505050565b60006117e682846116fc565b7f2057494e532121212121210000000000000000000000000000000000000000008152600b019392505050565b60006020828403121561182557600080fd5b5051919050565b6000825161183e818460208701611241565b919091019291505056fe416464726573733a206c6f772d6c6576656c2064656c65676174652063616c6c206661696c6564a264697066735822122049a1dc76e6a14551764538b70a641326c2cb178fb301aefcb774c03c14d8db4164736f6c63430008140033",
  "linkReferences": {},
  "deployedLinkReferences": {}
}