{
  "_format": "hh-sol-artifact-1",
  "contractName": "VotingV1",
  "sourceName": "contracts/UpgradeableVoting.sol",
  "abi": [
    {
      "inputs": [],
      "stateMutability": "nonpayable",
      "type": "constructor"
    },
    {
      "anonymous": false,
      "inputs": [
        {
          "indexed": false,
          "internalType": "address",
          "name": "previousAdmin",
          "type": "address"
        },
        {
          "indexed": false,
          "internalType": "address",
          "name": "newAdmin",
          "type": "address"
        }
      ],
      "name": "AdminChanged",
      "type": "event"
    },
    {
      "anonymous": false,
      "inputs": [
        {
          "indexed": true,
          "internalType": "address",
          "name": "beacon",
          "type": "address"
        }
      ],
      "name": "BeaconUpgraded",
      "type": "event"
    },
    {
      "anonymous": false,
      "inputs": [
        {
          "indexed": false,
          "internalType": "uint8",
          "name": "version",
          "type": "uint8"
        }
      ],
      "name": "Initialized",
      "type": "event"
    },
    {
      "anonymous": false,
      "inputs": [
        {
          "indexed": true,
          "internalType": "address",
          "name": "previousOwner",
          "type": "address"
        },
        {
          "indexed": true,
          "internalType": "address",
          "name": "newOwner",
          "type": "address"
        }
      ],
      "name": "OwnershipTransferred",
      "type": "event"
    },
    {
      "anonymous": false,
      "inputs": [
        {
          "indexed": true,
          "internalType": "address",
          "name": "implementation",
          "type": "address"
        }
      ],
      "name": "Upgraded",
      "type": "event"
    },
    {
      "anonymous": false,
      "inputs": [
        {
          "indexed": true,
          "internalType": "address",
          "name": "voter",
          "type": "address"
        },
        {
          "indexed": false,
          "internalType": "string",
          "name": "option",
          "type": "string"
        }
      ],
      "name": "Voted",
      "type": "event"
    },
    {
      "inputs": [
        {
          "internalType": "string",
          "name": "_option1",
          "type": "string"
        },
        {
          "internalType": "string",
          "name": "_option2",
          "type": "string"
        }
      ],
      "name": "initialize",
      "outputs": [],
      "stateMutability": "nonpayable",
      "type": "function"
    },
    {
      "inputs": [],
      "name": "option1",
      "outputs": [
        {
          "internalType": "string",
          "name": "",
          "type": "string"
        }
      ],
      "stateMutability": "view",
      "type": "function"
    },
    {
      "inputs": [],
      "name": "option1Votes",
      "outputs": [
        {
          "internalType": "uint256",
          "name": "",
          "type": "uint256"
        }
      ],
      "stateMutability": "view",
      "type": "function"
    },
    {
      "inputs": [],
      "name": "option2",
      "outputs": [
        {
          "internalType": "string",
          "name": "",
          "type": "string"
        }
      ],
      "stateMutability": "view",
      "type": "function"
    },
    {
      "inputs": [],
      "name": "option2Votes",
      "outputs": [
        {
          "internalType": "uint256",
          "name": "",
          "type": "uint256"
        }
      ],
      "stateMutability": "view",
      "type": "function"
    },
    {
      "inputs": [],
      "name": "owner",
      "outputs": [
        {
          "internalType": "address",
          "name": "",
          "type": "address"
        }
      ],
      "stateMutability": "view",
      "type": "function"
    },
    {
      "inputs": [],
      "name": "proxiableUUID",
      "outputs": [
        {
          "internalType": "bytes32",
          "name": "",
          "type": "bytes32"
        }
      ],
      "stateMutability": "view",
      "type": "function"
    },
    {
      "inputs": [],
      "name": "renounceOwnership",
      "outputs": [],
      "stateMutability": "nonpayable",
      "type": "function"
    },
    {
      "inputs": [
        {
          "internalType": "address",
          "name": "newOwner",
          "type": "address"
        }
      ],
      "name": "transferOwnership",
      "outputs": [],
      "stateMutability": "nonpayable",
      "type": "function"
    },
    {
      "inputs": [
        {
          "internalType": "address",
          "name": "newImplementation",
          "type": "address"
        }
      ],
      "name": "upgradeTo",
      "outputs": [],
      "stateMutability": "nonpayable",
      "type": "function"
    },
    {
      "inputs": [
        {
          "internalType": "address",
          "name": "newImplementation",
          "type": "address"
        },
        {
          "internalType": "bytes",
          "name": "data",
          "type": "bytes"
        }
      ],
      "name": "upgradeToAndCall",
      "outputs": [],
      "stateMutability": "payable",
      "type": "function"
    },
    {
      "inputs": [],
      "name": "viewOptions",
      "outputs": [
        {
          "internalType": "string",
          "name": "",
          "type": "string"
        }
      ],
      "stateMutability": "view",
      "type": "function"
    },
    {
      "inputs": [
        {
          "internalType": "uint256",
          "name": "option",
          "type": "uint256"
        }
      ],
      "name": "vote",
      "outputs": [],
      "stateMutability": "nonpayable",
      "type": "function"
    },
    {
      "inputs": [
        {
          "internalType": "address",
          "name": "",
          "type": "address"
        }
      ],
      "name": "voterLog",
      "outputs": [
        {
          "internalType": "bool",
          "name": "hasVoted",
          "type": "bool"
        },
        {
          "internalType": "string",
          "name": "votedFor",
          "type": "string"
        }
      ],
      "stateMutability": "view",
      "type": "function"
    },
    {
      "inputs": [],
      "name": "winner",
      "outputs": [
        {
          "internalType": "string",
          "name": "",
          "type": "string"
        }
      ],
      "stateMutability": "view",
      "type": "function"
    }
  ],
  "bytecode": "0x60a06040523060805234801561001457600080fd5b5061001d610022565b6100e1565b600054610100900460ff161561008e5760405162461bcd60e51b815260206004820152602760248201527f496e697469616c697a61626c653a20636f6e747261637420697320696e697469604482015266616c697a696e6760c81b606482015260840160405180910390fd5b60005460ff908116146100df576000805460ff191660ff9081179091556040519081527f7f26b83ff96e1f2b6a682f133852f6798a09c465da95921460cefb38474024989060200160405180910390a15b565b60805161193b6101186000396000818161066c015281816106f10152818161092b015281816109b00152610a96015261193b6000f3fe6080604052600436106100e85760003560e01c8063715018a61161008a578063b4de238411610059578063b4de238414610246578063c0db3c601461025c578063dfbf53ae14610271578063f2fde38b1461028657600080fd5b8063715018a6146101d25780638da5cb5b146101e757806392d2e4381461020f578063ad69ab951461023157600080fd5b80634cd88b76116100c65780634cd88b76146101665780634d2c6c12146101865780634f1ef286146101aa57806352d1902d146101bd57600080fd5b80630121b93f146100ed5780632a5c59711461010f5780633659cfe614610146575b600080fd5b3480156100f957600080fd5b5061010d610108366004611362565b6102a6565b005b34801561011b57600080fd5b5061012f61012a366004611397565b6105b9565b60405161013d929190611402565b60405180910390f35b34801561015257600080fd5b5061010d610161366004611397565b610662565b34801561017257600080fd5b5061010d6101813660046114c9565b6107dd565b34801561019257600080fd5b5061019c60ca5481565b60405190815260200161013d565b61010d6101b836600461152d565b610921565b3480156101c957600080fd5b5061019c610a89565b3480156101de57600080fd5b5061010d610b4e565b3480156101f357600080fd5b506033546040516001600160a01b03909116815260200161013d565b34801561021b57600080fd5b50610224610b62565b60405161013d9190611585565b34801561023d57600080fd5b50610224610bf0565b34801561025257600080fd5b5061019c60c95481565b34801561026857600080fd5b50610224610bfd565b34801561027d57600080fd5b50610224610c28565b34801561029257600080fd5b5061010d6102a1366004611397565b610c9d565b6033546001600160a01b031633036103055760405162461bcd60e51b815260206004820152601160248201527f4f776e65722063616e6e6f7420766f746500000000000000000000000000000060448201526064015b60405180910390fd5b33600090815260cb602090815260408083208151808301909252805460ff1615158252600181018054929391929184019161033f90611598565b80601f016020809104026020016040519081016040528092919081815260200182805461036b90611598565b80156103b85780601f1061038d576101008083540402835291602001916103b8565b820191906000526020600020905b81548152906001019060200180831161039b57829003601f168201915b505050919092525050815191925050156104145760405162461bcd60e51b815260206004820152600d60248201527f416c726561647920766f7465640000000000000000000000000000000000000060448201526064016102fc565b8160010361050b576001815260cc805461042d90611598565b80601f016020809104026020016040519081016040528092919081815260200182805461045990611598565b80156104a65780601f1061047b576101008083540402835291602001916104a6565b820191906000526020600020905b81548152906001019060200180831161048957829003601f168201915b5050505050602082015260c980549060006104c0836115d2565b9190505550336001600160a01b03167fcb6783276e8a4347387036bbfea000268f0a4b1f8c46ac79980609f2af8d2acd60cc6040516104ff91906115f9565b60405180910390a25050565b6001815260cd805461051c90611598565b80601f016020809104026020016040519081016040528092919081815260200182805461054890611598565b80156105955780601f1061056a57610100808354040283529160200191610595565b820191906000526020600020905b81548152906001019060200180831161057857829003601f168201915b5050505050602082015260ca80549060006105af836115d2565b91905055505b5050565b60cb602052600090815260409020805460018201805460ff90921692916105df90611598565b80601f016020809104026020016040519081016040528092919081815260200182805461060b90611598565b80156106585780601f1061062d57610100808354040283529160200191610658565b820191906000526020600020905b81548152906001019060200180831161063b57829003601f168201915b5050505050905082565b6001600160a01b037f00000000000000000000000000000000000000000000000000000000000000001630036106ef5760405162461bcd60e51b815260206004820152602c60248201527f46756e6374696f6e206d7573742062652063616c6c6564207468726f7567682060448201526b19195b1959d85d1958d85b1b60a21b60648201526084016102fc565b7f00000000000000000000000000000000000000000000000000000000000000006001600160a01b031661074a7f360894a13ba1a3210667c828492db98dca3e2076cc3735a920a3ca505d382bbc546001600160a01b031690565b6001600160a01b0316146107b55760405162461bcd60e51b815260206004820152602c60248201527f46756e6374696f6e206d7573742062652063616c6c6564207468726f7567682060448201526b6163746976652070726f787960a01b60648201526084016102fc565b6107be81610d2a565b604080516000808252602082019092526107da91839190610d32565b50565b600054610100900460ff16158080156107fd5750600054600160ff909116105b806108175750303b158015610817575060005460ff166001145b6108895760405162461bcd60e51b815260206004820152602e60248201527f496e697469616c697a61626c653a20636f6e747261637420697320616c72656160448201527f647920696e697469616c697a656400000000000000000000000000000000000060648201526084016102fc565b6000805460ff1916600117905580156108ac576000805461ff0019166101001790555b6108b4610ed2565b6108bc610f45565b60cc6108c884826116d2565b5060cd6108d583826116d2565b50801561091c576000805461ff0019169055604051600181527f7f26b83ff96e1f2b6a682f133852f6798a09c465da95921460cefb38474024989060200160405180910390a15b505050565b6001600160a01b037f00000000000000000000000000000000000000000000000000000000000000001630036109ae5760405162461bcd60e51b815260206004820152602c60248201527f46756e6374696f6e206d7573742062652063616c6c6564207468726f7567682060448201526b19195b1959d85d1958d85b1b60a21b60648201526084016102fc565b7f00000000000000000000000000000000000000000000000000000000000000006001600160a01b0316610a097f360894a13ba1a3210667c828492db98dca3e2076cc3735a920a3ca505d382bbc546001600160a01b031690565b6001600160a01b031614610a745760405162461bcd60e51b815260206004820152602c60248201527f46756e6374696f6e206d7573742062652063616c6c6564207468726f7567682060448201526b6163746976652070726f787960a01b60648201526084016102fc565b610a7d82610d2a565b6105b582826001610d32565b6000306001600160a01b037f00000000000000000000000000000000000000000000000000000000000000001614610b295760405162461bcd60e51b815260206004820152603860248201527f555550535570677261646561626c653a206d757374206e6f742062652063616c60448201527f6c6564207468726f7567682064656c656761746563616c6c000000000000000060648201526084016102fc565b507f360894a13ba1a3210667c828492db98dca3e2076cc3735a920a3ca505d382bbc90565b610b56610fb0565b610b60600061100a565b565b60cc8054610b6f90611598565b80601f0160208091040260200160405190810160405280929190818152602001828054610b9b90611598565b8015610be85780601f10610bbd57610100808354040283529160200191610be8565b820191906000526020600020905b815481529060010190602001808311610bcb57829003601f168201915b505050505081565b60cd8054610b6f90611598565b606060cc60cd604051602001610c14929190611805565b604051602081830303815290604052905090565b606060ca5460c95403610c6d575060408051808201909152600f81527f4954532041204452415721212121210000000000000000000000000000000000602082015290565b60ca5460c9541115610c8b5760cc604051602001610c149190611870565b60cd604051602001610c149190611870565b610ca5610fb0565b6001600160a01b038116610d215760405162461bcd60e51b815260206004820152602660248201527f4f776e61626c653a206e6577206f776e657220697320746865207a65726f206160448201527f646472657373000000000000000000000000000000000000000000000000000060648201526084016102fc565b6107da8161100a565b6107da610fb0565b7f4910fdfa16fed3260ed0e7147f7cc6da11a60208b5b9406d12a635614ffd91435460ff1615610d655761091c83611069565b826001600160a01b03166352d1902d6040518163ffffffff1660e01b8152600401602060405180830381865afa925050508015610dbf575060408051601f3d908101601f19168201909252610dbc918101906118a9565b60015b610e315760405162461bcd60e51b815260206004820152602e60248201527f45524331393637557067726164653a206e657720696d706c656d656e7461746960448201527f6f6e206973206e6f74205555505300000000000000000000000000000000000060648201526084016102fc565b7f360894a13ba1a3210667c828492db98dca3e2076cc3735a920a3ca505d382bbc8114610ec65760405162461bcd60e51b815260206004820152602960248201527f45524331393637557067726164653a20756e737570706f727465642070726f7860448201527f6961626c6555554944000000000000000000000000000000000000000000000060648201526084016102fc565b5061091c838383611134565b600054610100900460ff16610f3d5760405162461bcd60e51b815260206004820152602b60248201527f496e697469616c697a61626c653a20636f6e7472616374206973206e6f74206960448201526a6e697469616c697a696e6760a81b60648201526084016102fc565b610b6061115f565b600054610100900460ff16610b605760405162461bcd60e51b815260206004820152602b60248201527f496e697469616c697a61626c653a20636f6e7472616374206973206e6f74206960448201526a6e697469616c697a696e6760a81b60648201526084016102fc565b6033546001600160a01b03163314610b605760405162461bcd60e51b815260206004820181905260248201527f4f776e61626c653a2063616c6c6572206973206e6f7420746865206f776e657260448201526064016102fc565b603380546001600160a01b0383811673ffffffffffffffffffffffffffffffffffffffff19831681179093556040519116919082907f8be0079c531659141344cd1fd0a4f28419497f9722a3daafe3b4186f6b6457e090600090a35050565b6001600160a01b0381163b6110e65760405162461bcd60e51b815260206004820152602d60248201527f455243313936373a206e657720696d706c656d656e746174696f6e206973206e60448201527f6f74206120636f6e74726163740000000000000000000000000000000000000060648201526084016102fc565b7f360894a13ba1a3210667c828492db98dca3e2076cc3735a920a3ca505d382bbc805473ffffffffffffffffffffffffffffffffffffffff19166001600160a01b0392909216919091179055565b61113d836111d3565b60008251118061114a5750805b1561091c576111598383611213565b50505050565b600054610100900460ff166111ca5760405162461bcd60e51b815260206004820152602b60248201527f496e697469616c697a61626c653a20636f6e7472616374206973206e6f74206960448201526a6e697469616c697a696e6760a81b60648201526084016102fc565b610b603361100a565b6111dc81611069565b6040516001600160a01b038216907fbc7cd75a20ee27fd9adebab32041f755214dbc6bffa90cc0225b39da2e5c2d3b90600090a250565b606061123883836040518060600160405280602781526020016118df6027913961123f565b9392505050565b6060600080856001600160a01b03168560405161125c91906118c2565b600060405180830381855af49150503d8060008114611297576040519150601f19603f3d011682016040523d82523d6000602084013e61129c565b606091505b50915091506112ad868383876112b7565b9695505050505050565b6060831561132657825160000361131f576001600160a01b0385163b61131f5760405162461bcd60e51b815260206004820152601d60248201527f416464726573733a2063616c6c20746f206e6f6e2d636f6e747261637400000060448201526064016102fc565b5081611330565b6113308383611338565b949350505050565b8151156113485781518083602001fd5b8060405162461bcd60e51b81526004016102fc9190611585565b60006020828403121561137457600080fd5b5035919050565b80356001600160a01b038116811461139257600080fd5b919050565b6000602082840312156113a957600080fd5b6112388261137b565b60005b838110156113cd5781810151838201526020016113b5565b50506000910152565b600081518084526113ee8160208601602086016113b2565b601f01601f19169290920160200192915050565b821515815260406020820152600061133060408301846113d6565b634e487b7160e01b600052604160045260246000fd5b600067ffffffffffffffff8084111561144e5761144e61141d565b604051601f8501601f19908116603f011681019082821181831017156114765761147661141d565b8160405280935085815286868601111561148f57600080fd5b858560208301376000602087830101525050509392505050565b600082601f8301126114ba57600080fd5b61123883833560208501611433565b600080604083850312156114dc57600080fd5b823567ffffffffffffffff808211156114f457600080fd5b611500868387016114a9565b9350602085013591508082111561151657600080fd5b50611523858286016114a9565b9150509250929050565b6000806040838503121561154057600080fd5b6115498361137b565b9150602083013567ffffffffffffffff81111561156557600080fd5b8301601f8101851361157657600080fd5b61152385823560208401611433565b60208152600061123860208301846113d6565b600181811c908216806115ac57607f821691505b6020821081036115cc57634e487b7160e01b600052602260045260246000fd5b50919050565b6000600182016115f257634e487b7160e01b600052601160045260246000fd5b5060010190565b600060208083526000845461160d81611598565b8084870152604060018084166000811461162e576001811461164857611676565b60ff1985168984015283151560051b890183019550611676565b896000528660002060005b8581101561166e5781548b8201860152908301908801611653565b8a0184019650505b509398975050505050505050565b601f82111561091c57600081815260208120601f850160051c810160208610156116ab5750805b601f850160051c820191505b818110156116ca578281556001016116b7565b505050505050565b815167ffffffffffffffff8111156116ec576116ec61141d565b611700816116fa8454611598565b84611684565b602080601f831160018114611735576000841561171d5750858301515b600019600386901b1c1916600185901b1785556116ca565b600085815260208120601f198616915b8281101561176457888601518255948401946001909101908401611745565b50858210156117825787850151600019600388901b60f8161c191681555b5050505050600190811b01905550565b6000815461179f81611598565b600182811680156117b757600181146117cc576117fb565b60ff19841687528215158302870194506117fb565b8560005260208060002060005b858110156117f25781548a8201529084019082016117d9565b50505082870194505b5050505092915050565b7f53656c656374203120666f72200000000000000000000000000000000000000081526000611837600d830185611792565b7f200a2053656c656374203220666f72200000000000000000000000000000000081526118676010820185611792565b95945050505050565b600061187c8284611792565b7f57494e53212121212121000000000000000000000000000000000000000000008152600a019392505050565b6000602082840312156118bb57600080fd5b5051919050565b600082516118d48184602087016113b2565b919091019291505056fe416464726573733a206c6f772d6c6576656c2064656c65676174652063616c6c206661696c6564a26469706673582212207b2419000fc1e0d3ad9eeb79ee56e3e5db9a920918f262fd1ce3ccb2ccc34f8d64736f6c63430008140033",
  "linkReferences": {},
  "deployedLinkReferences": {}
}