{
  "_format": "hh-sol-artifact-1",
  "contractName": "VotingV2",
  "sourceName": "contracts/UpgradeableVoting.sol",
  "abi": [
    {
      "inputs": [],
      "stateMutability": "nonpayable",
      "type": "constructor"
    },
    {
      "anonymous": false,
      "inputs": [
        {
          "indexed": false,
          "internalType": "address",
          "name": "previousAdmin",
          "type": "address"
        },
        {
          "indexed": false,
          "internalType": "address",
          "name": "newAdmin",
          "type": "address"
        }
      ],
      "name": "AdminChanged",
      "type": "event"
    },
    {
      "anonymous": false,
      "inputs": [
        {
          "indexed": true,
          "internalType": "address",
          "name": "beacon",
          "type": "address"
        }
      ],
      "name": "BeaconUpgraded",
      "type": "event"
    },
    {
      "anonymous": false,
      "inputs": [
        {
          "indexed": false,
          "internalType": "uint8",
          "name": "version",
          "type": "uint8"
        }
      ],
      "name": "Initialized",
      "type": "event"
    },
    {
      "anonymous": false,
      "inputs": [
        {
          "indexed": true,
          "internalType": "address",
          "name": "previousOwner",
          "type": "address"
        },
        {
          "indexed": true,
          "internalType": "address",
          "name": "newOwner",
          "type": "address"
        }
      ],
      "name": "OwnershipTransferred",
      "type": "event"
    },
    {
      "anonymous": false,
      "inputs": [
        {
          "indexed": true,
          "internalType": "address",
          "name": "implementation",
          "type": "address"
        }
      ],
      "name": "Upgraded",
      "type": "event"
    },
    {
      "anonymous": false,
      "inputs": [
        {
          "indexed": true,
          "internalType": "address",
          "name": "voter",
          "type": "address"
        },
        {
          "indexed": false,
          "internalType": "string",
          "name": "option",
          "type": "string"
        }
      ],
      "name": "Voted",
      "type": "event"
    },
    {
      "inputs": [],
      "name": "duration",
      "outputs": [
        {
          "internalType": "uint256",
          "name": "",
          "type": "uint256"
        }
      ],
      "stateMutability": "view",
      "type": "function"
    },
    {
      "inputs": [],
      "name": "option1",
      "outputs": [
        {
          "internalType": "string",
          "name": "",
          "type": "string"
        }
      ],
      "stateMutability": "view",
      "type": "function"
    },
    {
      "inputs": [],
      "name": "option1Votes",
      "outputs": [
        {
          "internalType": "uint256",
          "name": "",
          "type": "uint256"
        }
      ],
      "stateMutability": "view",
      "type": "function"
    },
    {
      "inputs": [],
      "name": "option2",
      "outputs": [
        {
          "internalType": "string",
          "name": "",
          "type": "string"
        }
      ],
      "stateMutability": "view",
      "type": "function"
    },
    {
      "inputs": [],
      "name": "option2Votes",
      "outputs": [
        {
          "internalType": "uint256",
          "name": "",
          "type": "uint256"
        }
      ],
      "stateMutability": "view",
      "type": "function"
    },
    {
      "inputs": [],
      "name": "owner",
      "outputs": [
        {
          "internalType": "address",
          "name": "",
          "type": "address"
        }
      ],
      "stateMutability": "view",
      "type": "function"
    },
    {
      "inputs": [],
      "name": "proxiableUUID",
      "outputs": [
        {
          "internalType": "bytes32",
          "name": "",
          "type": "bytes32"
        }
      ],
      "stateMutability": "view",
      "type": "function"
    },
    {
      "inputs": [
        {
          "internalType": "uint256",
          "name": "_duration",
          "type": "uint256"
        }
      ],
      "name": "reinitialize",
      "outputs": [],
      "stateMutability": "nonpayable",
      "type": "function"
    },
    {
      "inputs": [],
      "name": "renounceOwnership",
      "outputs": [],
      "stateMutability": "nonpayable",
      "type": "function"
    },
    {
      "inputs": [
        {
          "internalType": "uint256",
          "name": "_duration",
          "type": "uint256"
        }
      ],
      "name": "restartVoting",
      "outputs": [],
      "stateMutability": "nonpayable",
      "type": "function"
    },
    {
      "inputs": [],
      "name": "startTime",
      "outputs": [
        {
          "internalType": "uint256",
          "name": "",
          "type": "uint256"
        }
      ],
      "stateMutability": "view",
      "type": "function"
    },
    {
      "inputs": [
        {
          "internalType": "address",
          "name": "newOwner",
          "type": "address"
        }
      ],
      "name": "transferOwnership",
      "outputs": [],
      "stateMutability": "nonpayable",
      "type": "function"
    },
    {
      "inputs": [
        {
          "internalType": "address",
          "name": "newImplementation",
          "type": "address"
        }
      ],
      "name": "upgradeTo",
      "outputs": [],
      "stateMutability": "nonpayable",
      "type": "function"
    },
    {
      "inputs": [
        {
          "internalType": "address",
          "name": "newImplementation",
          "type": "address"
        },
        {
          "internalType": "bytes",
          "name": "data",
          "type": "bytes"
        }
      ],
      "name": "upgradeToAndCall",
      "outputs": [],
      "stateMutability": "payable",
      "type": "function"
    },
    {
      "inputs": [],
      "name": "viewOptions",
      "outputs": [
        {
          "internalType": "string",
          "name": "",
          "type": "string"
        }
      ],
      "stateMutability": "view",
      "type": "function"
    },
    {
      "inputs": [
        {
          "internalType": "uint256",
          "name": "option",
          "type": "uint256"
        }
      ],
      "name": "vote",
      "outputs": [],
      "stateMutability": "nonpayable",
      "type": "function"
    },
    {
      "inputs": [
        {
          "internalType": "address",
          "name": "",
          "type": "address"
        }
      ],
      "name": "voterLog",
      "outputs": [
        {
          "internalType": "bool",
          "name": "hasVoted",
          "type": "bool"
        },
        {
          "internalType": "string",
          "name": "votedFor",
          "type": "string"
        }
      ],
      "stateMutability": "view",
      "type": "function"
    },
    {
      "inputs": [],
      "name": "winner",
      "outputs": [
        {
          "internalType": "string",
          "name": "",
          "type": "string"
        }
      ],
      "stateMutability": "view",
      "type": "function"
    }
  ],
  "bytecode": "0x60a06040523060805234801561001457600080fd5b5061001d610022565b6100e1565b600054610100900460ff161561008e5760405162461bcd60e51b815260206004820152602760248201527f496e697469616c697a61626c653a20636f6e747261637420697320696e697469604482015266616c697a696e6760c81b606482015260840160405180910390fd5b60005460ff908116146100df576000805460ff191660ff9081179091556040519081527f7f26b83ff96e1f2b6a682f133852f6798a09c465da95921460cefb38474024989060200160405180910390a15b565b6080516117ed610118600039600081816105e2015281816106670152818161075d015281816107e201526108c801526117ed6000f3fe6080604052600436106101295760003560e01c80638da5cb5b116100a5578063b4de238411610074578063dfbf53ae11610059578063dfbf53ae146102da578063f2fde38b146102ef578063ffb6c6b61461030f57600080fd5b8063b4de2384146102af578063c0db3c60146102c557600080fd5b80638da5cb5b1461023057806392d2e438146102585780639867831c1461027a578063ad69ab951461029a57600080fd5b80634d2c6c12116100fc57806352d1902d116100e157806352d1902d146101f0578063715018a61461020557806378e979251461021a57600080fd5b80634d2c6c12146101c75780634f1ef286146101dd57600080fd5b80630121b93f1461012e5780630fb5a6b4146101505780632a5c5971146101795780633659cfe6146101a7575b600080fd5b34801561013a57600080fd5b5061014e610149366004611251565b61032f565b005b34801561015c57600080fd5b5061016660ce5481565b6040519081526020015b60405180910390f35b34801561018557600080fd5b50610199610194366004611286565b61052f565b6040516101709291906112f1565b3480156101b357600080fd5b5061014e6101c2366004611286565b6105d8565b3480156101d357600080fd5b5061016660ca5481565b61014e6101eb366004611322565b610753565b3480156101fc57600080fd5b506101666108bb565b34801561021157600080fd5b5061014e610980565b34801561022657600080fd5b5061016660cf5481565b34801561023c57600080fd5b506033546040516001600160a01b039091168152602001610170565b34801561026457600080fd5b5061026d610994565b60405161017091906113e4565b34801561028657600080fd5b5061014e610295366004611251565b610a22565b3480156102a657600080fd5b5061026d610a3f565b3480156102bb57600080fd5b5061016660c95481565b3480156102d157600080fd5b5061026d610a4c565b3480156102e657600080fd5b5061026d610a77565b3480156102fb57600080fd5b5061014e61030a366004611286565b610b4a565b34801561031b57600080fd5b5061014e61032a366004611251565b610bd7565b60ce5460cf5461033f919061140d565b42106103925760405162461bcd60e51b815260206004820152601360248201527f566f74696e672074696d65206973206f7665720000000000000000000000000060448201526064015b60405180910390fd5b6033546001600160a01b031633036103ec5760405162461bcd60e51b815260206004820152601160248201527f4f776e65722063616e6e6f7420766f74650000000000000000000000000000006044820152606401610389565b33600090815260cb60205260409020805460ff161561044d5760405162461bcd60e51b815260206004820152600d60248201527f416c726561647920766f746564000000000000000000000000000000000000006044820152606401610389565b805460ff1916600190811782558290036104cc576001810161047060cc826114a8565b5060c9805490600061048183611589565b9190505550336001600160a01b03167fcb6783276e8a4347387036bbfea000268f0a4b1f8c46ac79980609f2af8d2acd60cc6040516104c091906115a2565b60405180910390a25050565b600181016104db60cd826114a8565b5060ca80549060006104ec83611589565b9190505550336001600160a01b03167fcb6783276e8a4347387036bbfea000268f0a4b1f8c46ac79980609f2af8d2acd60cd6040516104c091906115a2565b5050565b60cb602052600090815260409020805460018201805460ff909216929161055590611420565b80601f016020809104026020016040519081016040528092919081815260200182805461058190611420565b80156105ce5780601f106105a3576101008083540402835291602001916105ce565b820191906000526020600020905b8154815290600101906020018083116105b157829003601f168201915b5050505050905082565b6001600160a01b037f00000000000000000000000000000000000000000000000000000000000000001630036106655760405162461bcd60e51b815260206004820152602c60248201527f46756e6374696f6e206d7573742062652063616c6c6564207468726f7567682060448201526b19195b1959d85d1958d85b1b60a21b6064820152608401610389565b7f00000000000000000000000000000000000000000000000000000000000000006001600160a01b03166106c07f360894a13ba1a3210667c828492db98dca3e2076cc3735a920a3ca505d382bbc546001600160a01b031690565b6001600160a01b03161461072b5760405162461bcd60e51b815260206004820152602c60248201527f46756e6374696f6e206d7573742062652063616c6c6564207468726f7567682060448201526b6163746976652070726f787960a01b6064820152608401610389565b61073481610cde565b6040805160008082526020820190925261075091839190610ce6565b50565b6001600160a01b037f00000000000000000000000000000000000000000000000000000000000000001630036107e05760405162461bcd60e51b815260206004820152602c60248201527f46756e6374696f6e206d7573742062652063616c6c6564207468726f7567682060448201526b19195b1959d85d1958d85b1b60a21b6064820152608401610389565b7f00000000000000000000000000000000000000000000000000000000000000006001600160a01b031661083b7f360894a13ba1a3210667c828492db98dca3e2076cc3735a920a3ca505d382bbc546001600160a01b031690565b6001600160a01b0316146108a65760405162461bcd60e51b815260206004820152602c60248201527f46756e6374696f6e206d7573742062652063616c6c6564207468726f7567682060448201526b6163746976652070726f787960a01b6064820152608401610389565b6108af82610cde565b61052b82826001610ce6565b6000306001600160a01b037f0000000000000000000000000000000000000000000000000000000000000000161461095b5760405162461bcd60e51b815260206004820152603860248201527f555550535570677261646561626c653a206d757374206e6f742062652063616c60448201527f6c6564207468726f7567682064656c656761746563616c6c00000000000000006064820152608401610389565b507f360894a13ba1a3210667c828492db98dca3e2076cc3735a920a3ca505d382bbc90565b610988610e8b565b6109926000610ee5565b565b60cc80546109a190611420565b80601f01602080910402602001604051908101604052809291908181526020018280546109cd90611420565b8015610a1a5780601f106109ef57610100808354040283529160200191610a1a565b820191906000526020600020905b8154815290600101906020018083116109fd57829003601f168201915b505050505081565b610a2a610e8b565b610a3581603c61162d565b60ce55504260cf55565b60cd80546109a190611420565b606060cc60cd604051602001610a639291906116b7565b604051602081830303815290604052905090565b606060ce5460cf54610a89919061140d565b4211610ad75760405162461bcd60e51b815260206004820152601460248201527f566f74696e67206973207374696c6c206f70656e0000000000000000000000006044820152606401610389565b60ca5460c95403610b1a575060408051808201909152600f81527f4954532041204452415721212121210000000000000000000000000000000000602082015290565b60ca5460c9541115610b385760cc604051602001610a639190611722565b60cd604051602001610a639190611722565b610b52610e8b565b6001600160a01b038116610bce5760405162461bcd60e51b815260206004820152602660248201527f4f776e61626c653a206e6577206f776e657220697320746865207a65726f206160448201527f64647265737300000000000000000000000000000000000000000000000000006064820152608401610389565b61075081610ee5565b600054600290610100900460ff16158015610bf9575060005460ff8083169116105b610c6b5760405162461bcd60e51b815260206004820152602e60248201527f496e697469616c697a61626c653a20636f6e747261637420697320616c72656160448201527f647920696e697469616c697a65640000000000000000000000000000000000006064820152608401610389565b6000805461ffff191660ff831617610100179055610c87610f44565b610c9282603c61162d565b60ce554260cf556000805461ff001916905560405160ff821681527f7f26b83ff96e1f2b6a682f133852f6798a09c465da95921460cefb38474024989060200160405180910390a15050565b610750610e8b565b7f4910fdfa16fed3260ed0e7147f7cc6da11a60208b5b9406d12a635614ffd91435460ff1615610d1e57610d1983610fca565b505050565b826001600160a01b03166352d1902d6040518163ffffffff1660e01b8152600401602060405180830381865afa925050508015610d78575060408051601f3d908101601f19168201909252610d759181019061175b565b60015b610dea5760405162461bcd60e51b815260206004820152602e60248201527f45524331393637557067726164653a206e657720696d706c656d656e7461746960448201527f6f6e206973206e6f7420555550530000000000000000000000000000000000006064820152608401610389565b7f360894a13ba1a3210667c828492db98dca3e2076cc3735a920a3ca505d382bbc8114610e7f5760405162461bcd60e51b815260206004820152602960248201527f45524331393637557067726164653a20756e737570706f727465642070726f7860448201527f6961626c655555494400000000000000000000000000000000000000000000006064820152608401610389565b50610d19838383611095565b6033546001600160a01b031633146109925760405162461bcd60e51b815260206004820181905260248201527f4f776e61626c653a2063616c6c6572206973206e6f7420746865206f776e65726044820152606401610389565b603380546001600160a01b0383811673ffffffffffffffffffffffffffffffffffffffff19831681179093556040519116919082907f8be0079c531659141344cd1fd0a4f28419497f9722a3daafe3b4186f6b6457e090600090a35050565b600054610100900460ff16610fc15760405162461bcd60e51b815260206004820152602b60248201527f496e697469616c697a61626c653a20636f6e7472616374206973206e6f74206960448201527f6e697469616c697a696e670000000000000000000000000000000000000000006064820152608401610389565b61099233610ee5565b6001600160a01b0381163b6110475760405162461bcd60e51b815260206004820152602d60248201527f455243313936373a206e657720696d706c656d656e746174696f6e206973206e60448201527f6f74206120636f6e7472616374000000000000000000000000000000000000006064820152608401610389565b7f360894a13ba1a3210667c828492db98dca3e2076cc3735a920a3ca505d382bbc805473ffffffffffffffffffffffffffffffffffffffff19166001600160a01b0392909216919091179055565b61109e836110c0565b6000825111806110ab5750805b15610d19576110ba8383611100565b50505050565b6110c981610fca565b6040516001600160a01b038216907fbc7cd75a20ee27fd9adebab32041f755214dbc6bffa90cc0225b39da2e5c2d3b90600090a250565b606061112583836040518060600160405280602781526020016117916027913961112e565b90505b92915050565b6060600080856001600160a01b03168560405161114b9190611774565b600060405180830381855af49150503d8060008114611186576040519150601f19603f3d011682016040523d82523d6000602084013e61118b565b606091505b509150915061119c868383876111a6565b9695505050505050565b6060831561121557825160000361120e576001600160a01b0385163b61120e5760405162461bcd60e51b815260206004820152601d60248201527f416464726573733a2063616c6c20746f206e6f6e2d636f6e74726163740000006044820152606401610389565b508161121f565b61121f8383611227565b949350505050565b8151156112375781518083602001fd5b8060405162461bcd60e51b815260040161038991906113e4565b60006020828403121561126357600080fd5b5035919050565b80356001600160a01b038116811461128157600080fd5b919050565b60006020828403121561129857600080fd5b6111258261126a565b60005b838110156112bc5781810151838201526020016112a4565b50506000910152565b600081518084526112dd8160208601602086016112a1565b601f01601f19169290920160200192915050565b821515815260406020820152600061121f60408301846112c5565b634e487b7160e01b600052604160045260246000fd5b6000806040838503121561133557600080fd5b61133e8361126a565b9150602083013567ffffffffffffffff8082111561135b57600080fd5b818501915085601f83011261136f57600080fd5b8135818111156113815761138161130c565b604051601f8201601f19908116603f011681019083821181831017156113a9576113a961130c565b816040528281528860208487010111156113c257600080fd5b8260208601602083013760006020848301015280955050505050509250929050565b60208152600061112560208301846112c5565b634e487b7160e01b600052601160045260246000fd5b80820180821115611128576111286113f7565b600181811c9082168061143457607f821691505b60208210810361145457634e487b7160e01b600052602260045260246000fd5b50919050565b601f821115610d1957600081815260208120601f850160051c810160208610156114815750805b601f850160051c820191505b818110156114a05782815560010161148d565b505050505050565b8181036114b3575050565b6114bd8254611420565b67ffffffffffffffff8111156114d5576114d561130c565b6114e9816114e38454611420565b8461145a565b6000601f82116001811461151d57600083156115055750848201545b600019600385901b1c1916600184901b178455611582565b600085815260209020601f19841690600086815260209020845b838110156115575782860154825560019586019590910190602001611537565b50858310156115755781850154600019600388901b60f8161c191681555b50505060018360011b0184555b5050505050565b60006001820161159b5761159b6113f7565b5060010190565b60006020808352600084546115b681611420565b808487015260406001808416600081146115d757600181146115f15761161f565b60ff1985168984015283151560051b89018301955061161f565b896000528660002060005b858110156116175781548b82018601529083019088016115fc565b8a0184019650505b509398975050505050505050565b8082028115828204841417611128576111286113f7565b6000815461165181611420565b60018281168015611669576001811461167e576116ad565b60ff19841687528215158302870194506116ad565b8560005260208060002060005b858110156116a45781548a82015290840190820161168b565b50505082870194505b5050505092915050565b7f53656c656374203120666f722000000000000000000000000000000000000000815260006116e9600d830185611644565b7f200a2053656c656374203220666f72200000000000000000000000000000000081526117196010820185611644565b95945050505050565b600061172e8284611644565b7f2057494e532121212121210000000000000000000000000000000000000000008152600b019392505050565b60006020828403121561176d57600080fd5b5051919050565b600082516117868184602087016112a1565b919091019291505056fe416464726573733a206c6f772d6c6576656c2064656c65676174652063616c6c206661696c6564a2646970667358221220ae4f07479d5703652013b2c0b6646ee0f4bba535abfdbf9ac0ac564b02b747ff64736f6c63430008140033",
  "linkReferences": {},
  "deployedLinkReferences": {}
}