{
  "_format": "hh-sol-artifact-1",
  "contractName": "SimpleVoting",
  "sourceName": "contracts/Voting.sol",
  "abi": [
    {
      "anonymous": false,
      "inputs": [
        {
          "indexed": true,
          "internalType": "address",
          "name": "voter",
          "type": "address"
        },
        {
          "indexed": false,
          "internalType": "enum SimpleVoting.Choices",
          "name": "choice",
          "type": "uint8"
        }
      ],
      "name": "Voted",
      "type": "event"
    },
    {
      "inputs": [],
      "name": "auditingVotes",
      "outputs": [
        {
          "internalType": "uint256",
          "name": "",
          "type": "uint256"
        }
      ],
      "stateMutability": "view",
      "type": "function"
    },
    {
      "inputs": [],
      "name": "vote_X402",
      "outputs": [],
      "stateMutability": "nonpayable",
      "type": "function"
    },
    {
      "inputs": [],
      "name": "vote_auditing",
      "outputs": [],
      "stateMutability": "nonpayable",
      "type": "function"
    },
    {
      "inputs": [
        {
          "internalType": "address",
          "name": "",
          "type": "address"
        }
      ],
      "name": "voterLog",
      "outputs": [
        {
          "internalType": "bool",
          "name": "hasVoted",
          "type": "bool"
        },
        {
          "internalType": "enum SimpleVoting.Choices",
          "name": "votedFor",
          "type": "uint8"
        }
      ],
      "stateMutability": "view",
      "type": "function"
    },
    {
      "inputs": [],
      "name": "winner",
      "outputs": [
        {
          "internalType": "string",
          "name": "",
          "type": "string"
        }
      ],
      "stateMutability": "view",
      "type": "function"
    },
    {
      "inputs": [],
      "name": "x402Votes",
      "outputs": [
        {
          "internalType": "uint256",
          "name": "",
          "type": "uint256"
        }
      ],
      "stateMutability": "view",
      "type": "function"
    }
  ],
  "bytecode": "0x608060405234801561001057600080fd5b5061046d806100206000396000f3fe608060405234801561001057600080fd5b50600436106100725760003560e01c8063b58b5a1011610050578063b58b5a10146100db578063bdea6e62146100e3578063dfbf53ae146100ec57600080fd5b80632a5c5971146100775780634fff6e05146100ba57806382fc1df3146100d1575b600080fd5b6100a361008536600461033f565b60006020819052908152604090205460ff8082169161010090041682565b6040516100b192919061039e565b60405180910390f35b6100c360015481565b6040519081526020016100b1565b6100d9610101565b005b6100d96101c7565b6100c360025481565b6100f461027e565b6040516100b191906103b4565b3360009081526020819052604090205460ff16156101565760405162461bcd60e51b815260206004820152600d60248201526c105b1c9958591e481d9bdd1959609a1b60448201526064015b60405180910390fd5b336000908152602081905260408120805461ffff19166001908117909155805490918291610185908390610402565b909155505060405133907f14075e33dffdc00c1fcaf75d0f86d667170be57fb566b12b41b499e5fa53b125906101bd90600090610429565b60405180910390a2565b3360009081526020819052604090205460ff16156102175760405162461bcd60e51b815260206004820152600d60248201526c105b1c9958591e481d9bdd1959609a1b604482015260640161014d565b336000908152602081905260408120805461ffff19166101011790556002805460019290610246908490610402565b909155505060405133907f14075e33dffdc00c1fcaf75d0f86d667170be57fb566b12b41b499e5fa53b125906101bd90600190610429565b6060600254600154036102c3575060408051808201909152600881527f4452415721212121000000000000000000000000000000000000000000000000602082015290565b6002546001541115610307575060408051808201909152601781527f78343032206973207468652057494e4e45522021212121000000000000000000602082015290565b5060408051808201909152601b81527f4175646974696e67206973207468652057494e4e455220212121210000000000602082015290565b60006020828403121561035157600080fd5b813573ffffffffffffffffffffffffffffffffffffffff8116811461037557600080fd5b9392505050565b6002811061039a57634e487b7160e01b600052602160045260246000fd5b9052565b821515815260408101610375602083018461037c565b600060208083528351808285015260005b818110156103e1578581018301518582016040015282016103c5565b506000604082860101526040601f19601f8301168501019250505092915050565b8082018082111561042357634e487b7160e01b600052601160045260246000fd5b92915050565b60208101610423828461037c56fea264697066735822122065ef5b4fbbc216f24192182067211cb4e5332c4120429628b00532aec584fdcb64736f6c63430008140033",
  "linkReferences": {},
  "deployedLinkReferences": {}
}